:020000040800F2
:100000008806002029020008F904000825040008D9
:10001000F5040008DB020008AF0A00080000000039
:10002000000000000000000000000000A106000821
:10003000DF0200080000000075050008B90700088D
:10004000430200084302000843020008430200087C
:10005000430200084302000843020008430200086C
:1000600043020008E1020008F90200084302000808
:10007000430200084302000843020008430200084C
:10008000430200084302000843020008430200083C
:10009000430200084302000843020008430200082C
:1000A0004302000825080008430200084302000834
:1000B00043020008550800084302000843020008F4
:1000C00043020008430200084302000843020008FC
:1000D00043020008AD08000843020008430200087C
:1000E00043020008430200084302000843020008DC
:1000F00043020008430200084302000843020008CC
:1001000043020008430200084302000843020008BB
:1001100043020008430200084302000843020008AB
:10012000430200084302000843020008430200089B
:10013000430200084302000843020008430200088B
:10014000430200084302000843020008430200087B
:10015000430200084302000843020008430200086B
:10016000430200084302000843020008430200085B
:10017000430200084302000843020008430200084B
:10018000430200084302000800F002F800F03CF8C7
:100190000AA090E8000C82448344AAF10107DA45E2
:1001A00001D100F031F8AFF2090EBAE80F0013F0F8
:1001B000010F18BFFB1A43F001031847D40D0000CC
:1001C000F40D0000103A24BF78C878C1FAD852075D
:1001D00024BF30C830C144BF04680C6070470000C1
:1001E0000023002400250026103A28BF78C1FBD840
:1001F000520728BF30C148BF0B6070471FB500F0E1
:10020000ABFE1FBD10B510BD00F031F81146FFF771
:10021000F5FF00F043FE00F04FF803B4FFF7F2FFE4
:1002200003BC00F053F80000094880470948004724
:10023000FEE7FEE7FEE7FEE7FEE7FEE7FEE7FEE796
:10024000FEE7FEE704480549054A064B70470000F3
:10025000BD070008890100088800002088060020EA
:10026000880200208802002070477047704775465A
:1002700000F028F8AE4605006946534620F0070016
:10028000854618B020B5FFF7DDFFBDE820404FF0F0
:1002900000064FF000074FF000084FF0000B21F070
:1002A0000701AC46ACE8C009ACE8C009ACE8C0093D
:1002B000ACE8C0098D4670470446AFF30080204685
:1002C000FFF7ABFF004870472400002001491820C9
:1002D000ABBEFEE726000200704700BFFEE7704796
:1002E00010B5082000F01AF8012801D100F020FE16
:1002F000082000F00DF810BD10B5102000F00EF829
:10030000012801D100F032FC102000F001F810BDEE
:100310000149086070470000143C0140014600207C
:10032000034A12680A400AB1012000E00020704729
:10033000143C0140F0B50A4600210023002400BF10
:100340003DE0012505FA01F3156805EA03049C4226
:1003500034D105684F000326BE40B54305601579CA
:100360004E00B5400668354305601579012D02D071
:100370001579022D16D185684F000326BE40B5437E
:10038000856055794E00B54086683543856045687F
:1003900001268E40B5434560456896798E40B6B2D9
:1003A00035434560C5684F000326BE40B543C56070
:1003B000D5794E00B540C6683543C560491C102943
:1003C000BFD3F0BDF0B5002300244D07ED0E02FAB7
:1003D00005F3CE1000F1200555F826504E07F70E14
:1003E0000F26BE40B543CF1000F1200646F8275037
:1003F000CE1000F1200555F8265045EA0304CE1032
:1004000000F1200545F82640F0BD024600201369A2
:100410000B400BB1012000E0002070474183704782
:100420000183704700BFFEE72DE9F041074688468B
:1004300015460026002400E0761CA85D0028FBD1AC
:10044000012F0DD108F18001C8B200F021F800247D
:1004500003E0285D00F0F2FC641CB442F9DB13E019
:10046000022F0DD108F1C001C8B200F011F800242C
:1004700003E0285D00F0E2FC641CB442F9DB03E019
:1004800002A1C8B200F0DAFCBDE8F081450000002E
:1004900010B5044600F07EFB142000F0EBFBFF20BB
:1004A00012490880881E048001151148FFF7B6FF25
:1004B0004FF480510E48FFF7B1FF4FF480410C48D4
:1004C000FFF7ACFF142000F0D5FB4FF48041084843
:1004D000FFF7A6FF0A2000F0CDFB4FF4804104484F
:1004E000FFF79CFF0A2000F0C5FB10BD1A0C02406C
:1004F0000004024000BFFEE77047000070B5002115
:1005000000230F22C4781CB3174C246804F4E06461
:10051000C4F5E064C4F30721C1F10404E3B20A4165
:1005200044789C40E1B28478144021430C07210EAA
:100530000E4C05786155047804F01F050124AC4089
:1005400005786D11AD0005F1E025C5F8004109E021
:10055000047804F01F050124AC40054D067876119F
:1005600045F8264070BD00000CED00E000E400E01E
:1005700080E100E07047000029B1064A126802439A
:10058000044B1A6004E0034A12688243014B1A606C
:10059000704700003038024029B1064A1268024311
:1005A000044B1A6004E0034A12688243014B1A604C
:1005B0007047000044380240F0B5002100220024BA
:1005C000022500260223324F3F6807F00C0121B1BB
:1005D000042905D0082937D105E02E4F076036E001
:1005E0002D4F076033E02A4F3F1F3F68C7F3805607
:1005F000274F3F1F3F6807F03F036EB1264FB7FB01
:10060000F3F7DFF88CC0ACF1040CDCF800C0CCF3DD
:10061000881C07FB0CF40CE01E4FB7FBF3F7DFF868
:1006200070C0ACF1040CDCF800C0CCF3881C07FBF4
:100630000CF4174F3F1F3F68C7F301477F1C7D0035
:10064000B4FBF5F7076002E0124F076000BF00BF80
:100650000F4F3F6807F0F0010909104F7A5C0768F7
:10066000D74047600A4F3F6807F4E051890A0B4FB3
:100670007A5C4768D7408760054F3F6807F4604160
:10068000490B064F7A5C4768D740C760F0BD000051
:10069000083802400024F40000127A001300002001
:1006A000704700000CB500200190009034480068AD
:1006B00040F480303249086000BF3148006800F4DF
:1006C000003000900198401C0190009818B90198E2
:1006D000B0F5A04FF1D12A48006800F4003010B105
:1006E0000120009001E0002000900098012846D1F0
:1006F00023484030006840F0805021494031086074
:100700002048006840F440401E4908601C480830FA
:1007100000681B49083108600846006840F4004042
:1007200008600846006840F4A05008601648091F99
:100730000860081F006840F08070091F086000BF53
:100740000F48006800F000700028F9D040F20570F2
:100750000E4908600A480830006820F00300084984
:10076000083108600846006840F00200086000BFD9
:1007700003480830006800F00C000828F8D10CBDD0
:10078000003802400070004008544007003C02401E
:10079000042808D14FF0E021096941F004014FF02D
:1007A000E022116107E04FF0E021096921F0040126
:1007B0004FF0E022116170477047000010B51548F6
:1007C000006840F47000134908601348006840F066
:1007D00001001149086000200F49083108600E48E7
:1007E00000680E4908400C4908600D48091D086062
:1007F000081F006820F48020091F086000200649B7
:100800000C310860FFF74EFF4FF00060014980395E
:10081000086010BD88ED00E000380240FFFFF6FEE2
:100820001030002410B50121074800F02EF80128EF
:1008300005D106480068C0430549C1F89C02012162
:10084000014800F01FF810BD000001409C0240422A
:100850000000404210B50121074800F016F80128B9
:1008600005D106480068C0430549C1F89802012136
:10087000014800F007F810BD000400409802404213
:1008800000004042CA430282704730B50246002051
:1008900000230024158A05EA0103958905EA01046D
:1008A00013B10CB1012000E0002030BD10B540F2C2
:1008B00025510F4800F03DF8012817D10C4800F0F1
:1008C000F1F8C1B20B4802780078401C094B18704F
:1008D0000948815440F22551054800F00FF80548B9
:1008E0000078072802D100200249087010BD0000DE
:1008F00000100140120000200000002010B500226E
:10090000002340F66A14A14200D100BF0A1201245C
:100910009440A3B2DC43048010BD21B1828942F42B
:100920000052828104E082894DF6FF731A40828171
:10093000704770B50246002400230025002040F6D1
:100940006A16B14200D100BFC1F3421501F01F0386
:10095000012606FA03F3012D02D19689334006E001
:10096000022D02D1168A334001E0968A33400C12E0
:10097000012606FA04F41688344013B10CB10120A4
:1009800000E0002070BDF0B50346002400260025DD
:10099000002040F66A17B94200D100BF1846C1F3E3
:1009A000421401F01F06012707FA06F5012C01D1B8
:1009B0000C3004E0022C01D1103000E014301AB1E8
:1009C00007682F43076002E00768AF430760F0BD88
:1009D0002DE9FF4705460E460024A14600BFA0466C
:1009E000B08900B100BF2C8A24F44054F08804433D
:1009F0002C82AC8941F20C608443B0883189084371
:100A0000718908430443AC81AC8A24F44074B089F2
:100A10000443AC826846FFF7CFFD2048854202D0F0
:100A20001F48854202D1DDF80C9001E0DDF8089006
:100A3000A88900F4004040B109EBC90000EB09109F
:100A400031684900B0FBF1F707E009EBC90000EBA2
:100A5000091031688900B0FBF1F76420B7FBF0F0B2
:100A600004012009642101FB1078A88900F40040EA
:100A700040B1322000EBC800B0FBF1F000F00700FD
:100A8000044308E0322000EB08106421B0FBF1F0D1
:100A900000F00F0004432C81BDE8FF8700100140E7
:100AA0000014014001468888C0F30800704700BF69
:100AB000FEE7000000B587B001211020FFF76CFDB4
:100AC00001210846FFF758FD072209212548FFF7B5
:100AD00079FC07220A212348FFF774FC4FF4C06019
:100AE000059002208DF8180000208DF81A000120D2
:100AF0008DF81B0003208DF8190005A91948FFF790
:100B000019FC4FF4E13001900020ADF810000C20EA
:100B1000ADF80E000020ADF80C00ADF80A00ADF8FD
:100B2000080001A91048FFF753FF25208DF80000A9
:100B300001208DF803008DF801008DF80200684651
:100B4000FFF7DCFC012240F225510748FFF71BFFAD
:100B500001210548FFF7E1FE0348FFF7A3FF07B0B7
:100B600000BD0000000002400010014000200749C5
:100B7000086001200649C1F88802002003490831B5
:100B8000086001200249C1F8900270478482414206
:100B9000008041421CB58020009000208DF80400A8
:100BA00001208DF8070069461B48FFF7C3FB4FF48F
:100BB00080611A48FFF732FC4FF480511748FFF765
:100BC0002FFC4FF480411548FFF728FC052000F06A
:100BD00051F84FF480411148FFF722FC192000F032
:100BE00049F800BF80210C48FFF70FFC0128F9D01D
:100BF0004FF480410948FFF711FC8020009001204C
:100C00008DF8040000208DF806008DF80700694675
:100C10000148FFF78FFB1CBD000C0240000402409E
:100C200045F2082141434FF0E02251611146096924
:100C300041F0010111610021916100BF4FF0E021FD
:100C4000096901F480310029F8D000214FF0E02239
:100C50009161704700B5034607E04FF4FA70FFF763
:100C6000DFFF4FF4FA70FFF7DBFF1800A3F1010379
:100C7000F3D100BDC0EBC00101EB41014FF0E02218
:100C800051611146096941F0010111610021916131
:100C900000BF4FF0E021096901F480310029F8D04C
:100CA00000214FF0E0229161704700001CB5012146
:100CB0003020FFF761FC4FF4C060009001208DF8F8
:100CC000040002208DF8050000208DF806000120A8
:100CD0008DF8070069460D48FFF72CFB04200090B3
:100CE00001208DF8040002208DF8050000208DF809
:100CF000060001208DF8070069460548FFF71AFB3A
:100D00004FF4C0610148FFF78BFB1CBD001402408B
:100D10000010024010B5002400F038F86420FFF7FE
:100D20007FFF3820FFF7B4FB0C20FFF7B1FB062054
:100D3000FFF7AEFB0120FFF7ABFB6420FFF770FF6E
:100D40008020FFF7A5FB00BF05E00E49085D00F01D
:100D500075F8601CC4B2102CF7DBC020FFF798FBBD
:100D6000002405E00849085D00F068F8601CC4B282
:100D7000102CF7DB4FF4FA60FFF752FF0120FFF76A
:100D800087FB10BD640F0008750F00081CB501211A
:100D90000220FFF7F1FB01210820FFF7EDFB4FF4E4
:100DA0008060009001208DF8040000208DF806007E
:100DB00001208DF8070002208DF8050069461D48C6
:100DC000FFF7B8FA4FF48050009001208DF804002E
:100DD00000208DF8060001208DF8070002208DF814
:100DE000050069461348FFF7A5FA4FF480400090CC
:100DF00001208DF8040000208DF8060001208DF8F8
:100E0000070002208DF8050069460A48FFF792FAAC
:100E1000FF20009001208DF8040000208DF80600CE
:100E20008DF8070002208DF8050069460248FFF79B
:100E300081FA1CBD00040240000C024010B50446BB
:100E40001420FFF717FFFF2012490880881E048036
:100E500001151148FFF7E4FA4FF480510E48FFF7EF
:100E6000DDFA4FF480410C48FFF7D8FA0A20FFF76B
:100E700001FF4FF480410848FFF7D2FA0A20FFF73C
:100E8000F9FE4FF480410448FFF7C8FA0A20FFF743
:100E9000F1FE10BD1A0C0240000402406FF0040085
:100EA000FFF776FCFFF702FFFFF704FEFFF732FFC4
:100EB0002DE0174840781749087015488078487029
:100EC0000020887012480079134908701048407952
:100ED00048700020887011A200210120FFF7A4FAB9
:100EE0000C4A05210120FFF79FFA0EA200210220E3
:100EF000FFF79AFA084A05210220FFF795FA022027
:100F0000FFF7A8FE09480078401E08490870D0E79E
:100F1000000000200C0000200F00002054656D70C0
:100F20003A00000048756D693A0000000700002093
:100F300001200749086000200649C1F88802012005
:100F400003490831086000200249C1F89002704747
:100F500084824142008041424FF04070E1EE100A2D
:100F600070470000202020202057454C434F4D451E
:100F700020202020002020202020205355535420C2
:100F80002020202020000000300000000000000091
:100F9000B00F00080000002024000000C401000879
:100FA000D40F00082400002064060000E0010008BF
:100FB00030000000000000FF736574003000003056
:100FC0000000000000000001020304010203040607
:040FD0000708090005
:0400000508000229C4
:00000001FF
