:020000040800F2
:1000000078060020310200080908000841070008AE
:1000100005080008F7050008DB0D000800000000D7
:10002000000000000000000000000000B10900080E
:10003000FB0500080000000085080008C90A000848
:100040004B0200084B0200084B0200084B0200085C
:100050004B0200084B0200084B0200084B0200084C
:100060004B020008FD050008150600084B020008B9
:100070004B0200084B0200084B0200084B0200082C
:100080004B0200084B0200084B0200084B0200081C
:100090004B0200084B0200084B0200084B0200080C
:1000A0004B020008350B00084B0200084B02000809
:1000B0004B020008650B00084B0200084B020008C9
:1000C0004B0200084B0200084B0200084B020008DC
:1000D0004B020008BD0B00084B0200084B02000851
:1000E0004B0200084B0200084B0200084B020008BC
:1000F0004B0200084B0200084B0200084B020008AC
:100100004B0200084B0200084B0200084B0200089B
:100110004B0200084B0200084B0200084B0200088B
:100120004B0200084B0200084B0200084B0200087B
:100130004B0200084B0200084B0200084B0200086B
:100140004B0200084B0200084B0200084B0200085B
:100150004B0200084B0200084B0200084B0200084B
:100160004B0200084B0200084B0200084B0200083B
:100170004B0200084B0200084B0200084B0200082B
:100180004B0200084B02000800F002F800F041F8B2
:100190000AA090E8000C82448344AAF10107DA45E2
:1001A00001D100F036F8AFF2090EBAE80F0013F0F3
:1001B000010F18BFFB1A43F0010318471C11000080
:1001C0003C110000103A24BF78C878C1FAD8520711
:1001D00024BF30C830C144BF04680C6070470000C1
:1001E0000023002400250026103A28BF78C1FBD840
:1001F000520728BF30C148BF0B607047642900F028
:100200007380002070471FB501F048F81FBD10B57E
:1002100010BD00F0BAF91146FFF7F5FF00F0D6FF68
:1002200000F0D8F903B4FFF7F2FF03BC00F0DCF9EB
:100230000948804709480047FEE7FEE7FEE7FEE77A
:10024000FEE7FEE7FEE7FEE7FEE7FEE704480549B6
:10025000054A064B70470000CD0A000889010008D6
:100260007800002078060020780200207802002024
:100270000FB41CB5074B06AA7B446946009005984D
:1002800000F06BF90020694600F07AF91CBC5DF8BB
:1002900014FB00000503000070B504468569006882
:1002A000C10601D5302600E02026C00707D070BD6A
:1002B000D4E9012130469047206A401C20626D1E1F
:1002C000F6D570BD70B5044685690078C00707D1C2
:1002D00070BDD4E9012120209047206A401C206293
:1002E0006D1EF6D570BD00002DE9F04106460024D4
:1002F00010687529314616A510D0AFF3008000288C
:1003000002DA404213A507E031688A0701D512A539
:1003100002E0490704D511A5012401E0AFF30080F4
:1003200000210A2206F1240709E0B0FBF2FCB0FB31
:10033000F2F302FB1C00303078541846491C0028A8
:10034000F3D123462A463046BDE8F04100F0A7B875
:10035000000000002D0000002B0000002000000025
:100360002DE9F05F894604464FF0000ADFF824B11A
:10037000FB44C0F820A02046E168884700287DD0D3
:10038000252806D0D4E901219047206A401C20622C
:10039000F1E700255F462046E168884720280646A9
:1003A00007DB312E05D2B81910F8200C08B105432F
:1003B000F1E7A80701D525F00405C4F81CA0002723
:1003C000C4F818A02A2E09D0304600F065FD38B3D5
:1003D00004EB8708303EC8F8186019E059F8041B90
:1003E000204604EB87029161E1688847012F0646A9
:1003F00018D1E069002820DA25F020051DE0D8F8A2
:10040000180000EB800006EB40003038C8F81800F8
:100410002046E1688847064600F03EFD0028EED100
:10042000012F0AD02E2E08D12046E16888477F1C74
:100430000646022F45F02005C4DBA069002803DA38
:10044000404245F00105A061E80701D025F0100504
:10045000A6B1A6F14100192802D8203645F400655E
:100460004A463146204625604D46FFF7C7FE60B13B
:10047000012807D0ED1D25F0070000E007E000F19E
:10048000080978E705F1040975E730467AE7206A3C
:10049000BDE8F09F520F00007047704770472DE98C
:1004A000F0470D4699469246044600F1240801683B
:1004B000880604D5E06921F01001216000E00120E8
:1004C000A84201DD471B00E00027A1697A1902EB71
:1004D0000900081AA0612078C00602D42046FFF760
:1004E000DBFE002608E0D4E901211AF80600904757
:1004F000206A401C761C20624E45F4DB2078C00642
:100500000AD52046FFF7C8FE06E0D4E901213020D5
:100510009047206A401C2062381EA7F10107F4DCD6
:1005200007E0D4E9012118F805009047206A401C33
:100530002062281EA5F10105F3DC2046FFF7C2FE6C
:100540002078000602D50220BDE8F0870120FBE7F5
:1005500001694A1C02610878704700B58FB0CDE987
:1005600001310021059105497944CDE90310114677
:100570006846FFF7F5FE0FB000BD0000E5FFFFFF86
:100580000A6802F8010B0A607047754600F028F807
:10059000AE4605006946534620F00700854618B070
:1005A00020B5FFF753FEBDE820404FF000064FF0A6
:1005B00000074FF000084FF0000B21F00701AC4698
:1005C000ACE8C009ACE8C009ACE8C009ACE8C009B7
:1005D0008D4670470446AFF300802046FFF722FEA9
:1005E000004870471800002001491820ABBEFEE704
:1005F00026000200704700BFFEE7704710B50820D4
:1006000000F01AF8012801D100F034FE082000F0B3
:100610000DF810BD10B5102000F00EF8012801D122
:1006200000F042FC102000F001F810BD0149086004
:1006300070470000143C014001460020034A126844
:100640000A400AB1012000E000207047143C01403C
:10065000F0B50A4600210023002400BF3DE001253B
:1006600005FA01F3156805EA03049C4234D10568D4
:100670004F000326BE40B543056015794E00B540D6
:100680000668354305601579012D02D01579022DD4
:1006900016D185684F000326BE40B5438560557965
:1006A0004E00B540866835438560456801268E401A
:1006B000B5434560456896798E40B6B2354345608E
:1006C000C5684F000326BE40B543C560D5794E00CE
:1006D000B540C6683543C560491C1029BFD3F0BD7D
:1006E000F0B5002300244D07ED0E02FA05F3CE10FD
:1006F00000F1200555F826504E07F70E0F26BE4094
:10070000B543CF1000F1200646F82750CE1000F177
:10071000200555F8265045EA0304CE1000F12005C7
:1007200045F82640F0BD0246002013690B400BB18E
:10073000012000E00020704741837047018370472B
:1007400000BFFEE7F8B505460E46002400208DF8F0
:1007500003002A4610A16846FFF78AFD832000F0B7
:100760001FF800BF04E01DF8040000F0FFFC641C4B
:10077000032CF8DB324608A16846FFF779FDC32059
:1007800000F00EF8002404E01DF8040000F0EEFC78
:10079000641C032CF8DBF8BD253033640000000036
:1007A00010B5044600F094FB142000F001FCFF207B
:1007B00012490880881E048001151148FFF7BCFF0C
:1007C0004FF480510E48FFF7B7FF4FF480410C48BB
:1007D000FFF7B2FF142000F0EBFB4FF48041084814
:1007E000FFF7ACFF0A2000F0E3FB4FF48041044820
:1007F000FFF7A2FF0A2000F0DBFB10BD1A0C02403D
:100800000004024000BFFEE77047000070B5002101
:1008100000230F22C4781CB3174C246804F4E0644E
:10082000C4F5E064C4F30721C1F10404E3B20A4152
:1008300044789C40E1B28478144021430C07210E97
:100840000E4C05786155047804F01F050124AC4076
:1008500005786D11AD0005F1E025C5F8004109E00E
:10086000047804F01F050124AC40054D067876118C
:1008700045F8264070BD00000CED00E000E400E00B
:1008800080E100E07047000029B1064A1268024387
:10089000044B1A6004E0034A12688243014B1A6059
:1008A000704700003038024029B1064A12680243FE
:1008B000044B1A6004E0034A12688243014B1A6039
:1008C0007047000044380240F0B5002100220024A7
:1008D000022500260223324F3F6807F00C0121B1A8
:1008E000042905D0082937D105E02E4F076036E0EE
:1008F0002D4F076033E02A4F3F1F3F68C7F38056F4
:10090000274F3F1F3F6807F03F036EB1264FB7FBED
:10091000F3F7DFF88CC0ACF1040CDCF800C0CCF3CA
:10092000881C07FB0CF40CE01E4FB7FBF3F7DFF855
:1009300070C0ACF1040CDCF800C0CCF3881C07FBE1
:100940000CF4174F3F1F3F68C7F301477F1C7D0022
:10095000B4FBF5F7076002E0124F076000BF00BF6D
:100960000F4F3F6807F0F0010909104F7A5C0768E4
:10097000D74047600A4F3F6807F4E051890A0B4FA0
:100980007A5C4768D7408760054F3F6807F460414D
:10099000490B064F7A5C4768D740C760F0BD00003E
:1009A000083802400024F40000127A0008000020F9
:1009B000704700000CB5002001900090344800689A
:1009C00040F480303249086000BF3148006800F4CC
:1009D000003000900198401C0190009818B90198CF
:1009E000B0F5A04FF1D12A48006800F4003010B1F2
:1009F0000120009001E0002000900098012846D1DD
:100A000023484030006840F0805021494031086060
:100A10002048006840F440401E4908601C480830E7
:100A200000681B49083108600846006840F400402F
:100A300008600846006840F4A05008601648091F86
:100A40000860081F006840F08070091F086000BF40
:100A50000F48006800F000700028F9D040F20570DF
:100A60000E4908600A480830006820F00300084971
:100A7000083108600846006840F00200086000BFC6
:100A800003480830006800F00C000828F8D10CBDBD
:100A9000003802400070004008544007003C02400B
:100AA000042808D14FF0E021096941F004014FF01A
:100AB000E022116107E04FF0E021096921F0040113
:100AC0004FF0E022116170477047000010B51548E3
:100AD000006840F47000134908601348006840F053
:100AE00001001149086000200F49083108600E48D4
:100AF00000680E4908400C4908600D48091D08604F
:100B0000081F006820F48020091F086000200649A3
:100B10000C310860FFF74EFF4FF00060014980394B
:100B2000086010BD88ED00E000380240FFFFF6FECF
:100B30001030002410B50121074800F02EF80128DC
:100B400005D106480068C0430549C1F89C0201214F
:100B5000014800F01FF810BD000001409C02404217
:100B60000000404210B50121074800F016F80128A6
:100B700005D106480068C0430549C1F89802012123
:100B8000014800F007F810BD000400409802404200
:100B900000004042CA430282704730B5024600203E
:100BA00000230024158A05EA0103958905EA01045A
:100BB00013B10CB1012000E0002030BD10B540F2AF
:100BC00025510E4800F046F8012810D10B4800F0DE
:100BD000FBF80B49088008460188084800F0F9F83E
:100BE00000BF8021054800F028F80028F9D040F225
:100BF0002551024800F006F810BD00000010014029
:100C00000000002010B50022002340F66A14A14223
:100C100000D100BF0A1201249440A3B2DC43048037
:100C200010BD21B1828942F40052828104E08289A0
:100C30004DF6FF731A408281704702460020B1F5DD
:100C4000007F00D100BF13880B400BB1012000E0F2
:100C50000020704770B502460024002300250020C4
:100C600040F66A16B14200D100BFC1F3421501F04F
:100C70001F03012606FA03F3012D02D196893340A2
:100C800006E0022D02D1168A334001E0968A3340F5
:100C90000C12012606FA04F41688344013B10CB184
:100CA000012000E0002070BDF0B5034600240026BE
:100CB0000025002040F66A17B94200D100BF18464F
:100CC000C1F3421401F01F06012707FA06F5012CB3
:100CD00001D10C3004E0022C01D1103000E01430BE
:100CE0001AB107682F43076002E00768AF43076047
:100CF000F0BD00002DE9FF4705460E460024A14641
:100D000000BFA046B08900B100BF2C8A24F4405433
:100D1000F08804432C82AC8941F20C608443B08893
:100D200031890843718908430443AC81AC8A24F4B7
:100D30004074B0890443AC826846FFF7C5FD204883
:100D4000854202D01F48854202D1DDF80C9001E0B7
:100D5000DDF80890A88900F4004040B109EBC90013
:100D600000EB091031684900B0FBF1F707E009EB2F
:100D7000C90000EB091031688900B0FBF1F764206D
:100D8000B7FBF0F004012009642101FB1078A88969
:100D900000F4004040B1322000EBC800B0FBF1F09D
:100DA00000F00700044308E0322000EB0810642143
:100DB000B0FBF1F000F00F0004432C81BDE8FF8789
:100DC000001001400014014001468888C0F308006B
:100DD0007047C1F308028280704700BFFEE7000041
:100DE00000B587B001211020FFF75EFD0121084604
:100DF000FFF74AFD072209212548FFF771FC07226A
:100E00000A212348FFF76CFC4FF4C06005900220D4
:100E10008DF8180000208DF81A0001208DF81B00B5
:100E200003208DF8190005A91948FFF711FC4FF4AC
:100E3000E13001900020ADF810000C20ADF80E005C
:100E40000020ADF80C00ADF80A00ADF8080001A9CB
:100E50001048FFF74FFF25208DF8000001208DF886
:100E600003008DF801008DF802006846FFF7CEFC04
:100E7000012240F225510748FFF716FF01210548DE
:100E8000FFF7CFFE0348FFF79FFF07B000BD00004C
:100E9000000002400010014030380A2801D2012031
:100EA00070470020704700000020074908600120BB
:100EB0000649C1F888020020034908310860012072
:100EC0000249C1F890027047848241420080414249
:100ED0001CB58020009000208DF8040001208DF8C2
:100EE000070069461B48FFF7B3FB4FF480611A48BF
:100EF000FFF722FC4FF480511748FFF71FFC4FF417
:100F000080411548FFF718FC052000F051F84FF418
:100F100080411148FFF712FC192000F049F800BF8A
:100F200080210C48FFF7FFFB0128F9D04FF48041E6
:100F30000948FFF701FC8020009001208DF8040093
:100F400000208DF806008DF8070069460148FFF77C
:100F50007FFB1CBD000C02400004024045F208214A
:100F600041434FF0E02251611146096941F001010E
:100F700011610021916100BF4FF0E021096901F486
:100F800080310029F8D000214FF0E02291617047B4
:100F900000B5034607E04FF4FA70FFF7DFFF4FF4A8
:100FA000FA70FFF7DBFF1800A3F10103F3D100BDD6
:100FB000C0EBC00101EB41014FF0E022516111464D
:100FC000096941F0010111610021916100BF4FF0F9
:100FD000E021096901F480310029F8D000214FF0A7
:100FE000E0229161704700001CB501213020FFF71D
:100FF0004BFC4FF4C060009001208DF804000220EB
:101000008DF8050000208DF8060001208DF80700FE
:1010100069460D48FFF71CFB0420009001208DF865
:10102000040002208DF8050000208DF80600012044
:101030008DF8070069460548FFF70AFB4FF4C061C9
:101040000148FFF77BFB1CBD00140240001002406A
:1010500010B5002400F032F86420FFF77FFF38203D
:10106000FFF79EFB0C20FFF79BFB0620FFF798FB8A
:101070000120FFF795FB6420FFF770FF8020FFF74A
:101080008FFB00BF05E00B49085D00F06FF8601CA6
:10109000C4B2102CF7DBC020FFF782FB002405E070
:1010A0000549085D00F062F8601CC4B2102CF7DB43
:1010B00010BD0000A6120008B61200081CB50121E0
:1010C0000220FFF7E1FB01210820FFF7DDFB4FF4D1
:1010D0008060009001208DF8040000208DF806004B
:1010E00001208DF8070002208DF8050069461D4893
:1010F000FFF7AEFA4FF48050009001208DF8040005
:1011000000208DF8060001208DF8070002208DF8E0
:10111000050069461348FFF79BFA4FF480400090A2
:1011200001208DF8040000208DF8060001208DF8C4
:10113000070002208DF8050069460A48FFF788FA83
:10114000FF20009001208DF8040000208DF806009B
:101150008DF8070002208DF8050069460248FFF768
:1011600077FA1CBD00040240000C024010B5044692
:101170001420FFF71DFFFF2012490880881E0480FD
:1011800001151148FFF7DAFA4FF480510E48FFF7C6
:10119000D3FA4FF480410C48FFF7CEFA0A20FFF74C
:1011A00007FF4FF480410848FFF7C8FA0A20FFF70D
:1011B000FFFE4FF480410448FFF7BEFA0A20FFF714
:1011C000F7FE10BD1A0C0240000402406FF004004C
:1011D000FFF766FCFFF708FFFFF702FEFFF738FF97
:1011E0003EE020480088312802D100201E490860D6
:1011F0001C480088322802D101201B490860672161
:101200001A48FFF7E6FD00BF80211848FFF715FDDB
:101210000028F9D034211548FFF7DBFD00BF8021FD
:101220001248FFF70AFD0028F9D037210F48FFF7D1
:10123000D0FD00BF80210D48FFF7FFFC0028F9D04A
:101240000120FFF7A5FE0A480178FF20FFF77AFA90
:101250000120FFF79DFE06480088401E04490880D3
:10126000BFE7000000000020880242420010014059
:101270000200002001200749086000200649C1F84B
:101280008802012003490831086000200249C1F8A2
:101290009002704784824142008041424FF040708A
:1012A000E1EE100A7047202020202077656C636FE4
:1012B0006D652020200020202020202053555354ED
:1012C0002020202020000400000800000000000072
:1012D0000002000100001000F812000800000020C9
:1012E00018000000C40100081013000818000020B6
:1012F00060060000E00100080000F2007365740061
:1013000000000000010203040102030406070809AB
:0400000508000231BC
:00000001FF
